{
  "contractName": "Battleship",
  "abi": [
    {
      "anonymous": false,
      "inputs": [
        {
          "indexed": false,
          "internalType": "uint256",
          "name": "start_of_timeout",
          "type": "uint256"
        },
        {
          "indexed": false,
          "internalType": "address",
          "name": "reporter",
          "type": "address"
        }
      ],
      "name": "timeout",
      "type": "event"
    },
    {
      "inputs": [],
      "name": "store_bid",
      "outputs": [],
      "stateMutability": "payable",
      "type": "function",
      "payable": true
    },
    {
      "inputs": [
        {
          "internalType": "bytes32",
          "name": "merkle_root",
          "type": "bytes32"
        }
      ],
      "name": "store_board_commitment",
      "outputs": [],
      "stateMutability": "nonpayable",
      "type": "function"
    },
    {
      "inputs": [
        {
          "internalType": "bytes",
          "name": "opening_nonce",
          "type": "bytes"
        },
        {
          "internalType": "bytes32[]",
          "name": "proof",
          "type": "bytes32[]"
        },
        {
          "internalType": "uint256",
          "name": "guess_leaf_index",
          "type": "uint256"
        },
        {
          "internalType": "address",
          "name": "owner",
          "type": "address"
        }
      ],
      "name": "check_one_ship",
      "outputs": [
        {
          "internalType": "bool",
          "name": "result",
          "type": "bool"
        }
      ],
      "stateMutability": "nonpayable",
      "type": "function"
    },
    {
      "inputs": [],
      "name": "claim_win",
      "outputs": [],
      "stateMutability": "nonpayable",
      "type": "function"
    },
    {
      "inputs": [
        {
          "internalType": "address payable",
          "name": "opponent",
          "type": "address"
        }
      ],
      "name": "forfeit",
      "outputs": [],
      "stateMutability": "nonpayable",
      "type": "function"
    },
    {
      "inputs": [
        {
          "internalType": "bytes",
          "name": "opening_nonce",
          "type": "bytes"
        },
        {
          "internalType": "bytes32[]",
          "name": "proof",
          "type": "bytes32[]"
        },
        {
          "internalType": "uint256",
          "name": "guess_leaf_index",
          "type": "uint256"
        },
        {
          "internalType": "address",
          "name": "owner",
          "type": "address"
        }
      ],
      "name": "accuse_cheating",
      "outputs": [
        {
          "internalType": "bool",
          "name": "result",
          "type": "bool"
        }
      ],
      "stateMutability": "nonpayable",
      "type": "function"
    },
    {
      "inputs": [
        {
          "internalType": "address",
          "name": "opponent",
          "type": "address"
        }
      ],
      "name": "claim_opponent_left",
      "outputs": [],
      "stateMutability": "nonpayable",
      "type": "function"
    },
    {
      "inputs": [
        {
          "internalType": "address payable",
          "name": "opponent",
          "type": "address"
        }
      ],
      "name": "handle_timeout",
      "outputs": [],
      "stateMutability": "nonpayable",
      "type": "function"
    },
    {
      "inputs": [
        {
          "internalType": "address",
          "name": "opponent",
          "type": "address"
        }
      ],
      "name": "claim_timeout_winnings",
      "outputs": [],
      "stateMutability": "nonpayable",
      "type": "function"
    },
    {
      "inputs": [],
      "name": "is_game_over",
      "outputs": [
        {
          "internalType": "bool",
          "name": "",
          "type": "bool"
        }
      ],
      "stateMutability": "nonpayable",
      "type": "function"
    },
    {
      "inputs": [
        {
          "internalType": "bytes32",
          "name": "a",
          "type": "bytes32"
        },
        {
          "internalType": "bytes32",
          "name": "b",
          "type": "bytes32"
        }
      ],
      "name": "merge_bytes32",
      "outputs": [
        {
          "internalType": "bytes",
          "name": "",
          "type": "bytes"
        }
      ],
      "stateMutability": "pure",
      "type": "function",
      "constant": true
    },
    {
      "inputs": [
        {
          "internalType": "bytes",
          "name": "opening_nonce",
          "type": "bytes"
        },
        {
          "internalType": "bytes32[]",
          "name": "proof",
          "type": "bytes32[]"
        },
        {
          "internalType": "uint256",
          "name": "guess_leaf_index",
          "type": "uint256"
        },
        {
          "internalType": "bytes32",
          "name": "commit",
          "type": "bytes32"
        }
      ],
      "name": "verify_opening",
      "outputs": [
        {
          "internalType": "bool",
          "name": "result",
          "type": "bool"
        }
      ],
      "stateMutability": "view",
      "type": "function",
      "constant": true
    },
    {
      "inputs": [
        {
          "internalType": "uint256[]",
          "name": "array",
          "type": "uint256[]"
        },
        {
          "internalType": "uint256",
          "name": "value",
          "type": "uint256"
        }
      ],
      "name": "isInArray",
      "outputs": [
        {
          "internalType": "bool",
          "name": "",
          "type": "bool"
        }
      ],
      "stateMutability": "view",
      "type": "function",
      "constant": true
    }
  ],
  "bytecode": "0x60806040526040518060400160405280600781526020017f706f766f646e6100000000000000000000000000000000000000000000000000815250600090805190602001906200005192919062000086565b506001600460006101000a81548160ff02191690831515021790555060006007553480156200007f57600080fd5b5062000135565b828054600181600116156101000203166002900490600052602060002090601f016020900481019282601f10620000c957805160ff1916838001178555620000fa565b82800160010185558215620000fa579182015b82811115620000f9578251825591602001919060010190620000dc565b5b5090506200010991906200010d565b5090565b6200013291905b808211156200012e57600081600090555060010162000114565b5090565b90565b6124ab80620001456000396000f3fe6080604052600436106100c25760003560e01c8063a1fe39531161007f578063b62829b911610059578063b62829b914610690578063deffa9671461082e578063f33bd1941461087f578063f66e88b1146108ae576100c2565b8063a1fe3953146105b3578063a2c66df114610604578063a88f4db514610655576100c2565b80630868d16b146100c757806345f203b1146100de5780634ea0e9d4146100e857806350a04b45146101a65780636cf399fa1461032e5780638cb97612146104cc575b600080fd5b3480156100d357600080fd5b506100dc6108ff565b005b6100e6610c46565b005b3480156100f457600080fd5b5061012b6004803603604081101561010b57600080fd5b810190808035906020019092919080359060200190929190505050610e3c565b6040518080602001828103825283818151815260200191508051906020019080838360005b8381101561016b578082015181840152602081019050610150565b50505050905090810190601f1680156101985780820380516001836020036101000a031916815260200191505b509250505060405180910390f35b3480156101b257600080fd5b50610314600480360360808110156101c957600080fd5b81019080803590602001906401000000008111156101e657600080fd5b8201836020820111156101f857600080fd5b8035906020019184600183028401116401000000008311171561021a57600080fd5b91908080601f016020809104026020016040519081016040528093929190818152602001838380828437600081840152601f19601f8201169050808301925050505050505091929192908035906020019064010000000081111561027d57600080fd5b82018360208201111561028f57600080fd5b803590602001918460208302840111640100000000831117156102b157600080fd5b919080806020026020016040519081016040528093929190818152602001838360200280828437600081840152601f19601f8201169050808301925050505050505091929192908035906020019092919080359060200190929190505050610ea3565b604051808215151515815260200191505060405180910390f35b34801561033a57600080fd5b506104b26004803603608081101561035157600080fd5b810190808035906020019064010000000081111561036e57600080fd5b82018360208201111561038057600080fd5b803590602001918460018302840111640100000000831117156103a257600080fd5b91908080601f016020809104026020016040519081016040528093929190818152602001838380828437600081840152601f19601f8201169050808301925050505050505091929192908035906020019064010000000081111561040557600080fd5b82018360208201111561041757600080fd5b8035906020019184602083028401116401000000008311171561043957600080fd5b919080806020026020016040519081016040528093929190818152602001838360200280828437600081840152601f19601f82011690508083019250505050505050919291929080359060200190929190803573ffffffffffffffffffffffffffffffffffffffff169060200190929190505050610fcc565b604051808215151515815260200191505060405180910390f35b3480156104d857600080fd5b50610599600480360360408110156104ef57600080fd5b810190808035906020019064010000000081111561050c57600080fd5b82018360208201111561051e57600080fd5b8035906020019184602083028401116401000000008311171561054057600080fd5b919080806020026020016040519081016040528093929190818152602001838360200280828437600081840152601f19601f820116905080830192505050505050509192919290803590602001909291905050506111c9565b604051808215151515815260200191505060405180910390f35b3480156105bf57600080fd5b50610602600480360360208110156105d657600080fd5b81019080803573ffffffffffffffffffffffffffffffffffffffff169060200190929190505050611218565b005b34801561061057600080fd5b506106536004803603602081101561062757600080fd5b81019080803573ffffffffffffffffffffffffffffffffffffffff16906020019092919050505061145e565b005b34801561066157600080fd5b5061068e6004803603602081101561067857600080fd5b8101908080359060200190929190505050611541565b005b34801561069c57600080fd5b50610814600480360360808110156106b357600080fd5b81019080803590602001906401000000008111156106d057600080fd5b8201836020820111156106e257600080fd5b8035906020019184600183028401116401000000008311171561070457600080fd5b91908080601f016020809104026020016040519081016040528093929190818152602001838380828437600081840152601f19601f8201169050808301925050505050505091929192908035906020019064010000000081111561076757600080fd5b82018360208201111561077957600080fd5b8035906020019184602083028401116401000000008311171561079b57600080fd5b919080806020026020016040519081016040528093929190818152602001838360200280828437600081840152601f19601f82011690508083019250505050505050919291929080359060200190929190803573ffffffffffffffffffffffffffffffffffffffff169060200190929190505050611653565b604051808215151515815260200191505060405180910390f35b34801561083a57600080fd5b5061087d6004803603602081101561085157600080fd5b81019080803573ffffffffffffffffffffffffffffffffffffffff169060200190929190505050611a44565b005b34801561088b57600080fd5b50610894611bf1565b604051808215151515815260200191505060405180910390f35b3480156108ba57600080fd5b506108fd600480360360208110156108d157600080fd5b81019080803573ffffffffffffffffffffffffffffffffffffffff169060200190929190505050611c09565b005b60011515600460009054906101000a900460ff16151514610988576040517f08c379a000000000000000000000000000000000000000000000000000000000815260040180806020018281038252601f8152602001807f424154544c45534849503a2067616d65206973206e6f742072756e6e696e670081525060200191505060405180910390fd5b610990611d41565b6109e5576040517f08c379a000000000000000000000000000000000000000000000000000000000815260040180806020018281038252602c8152602001806123fa602c913960400191505060405180910390fd5b60026000815481106109f357fe5b9060005260206000200160009054906101000a900473ffffffffffffffffffffffffffffffffffffffff1673ffffffffffffffffffffffffffffffffffffffff163373ffffffffffffffffffffffffffffffffffffffff161415610b1557600a600c80549050141580610a6b5750600a808054905014155b15610a7557610c44565b6040518060400160405280600c81526020017f6a6520746f20687261632031000000000000000000000000000000000000000081525060069080519060200190610ac09291906120bc565b503373ffffffffffffffffffffffffffffffffffffffff166108fc479081150290604051600060405180830381858888f19350505050158015610b07573d6000803e3d6000fd5b50610b10611e1d565b610c43565b6002600181548110610b2357fe5b9060005260206000200160009054906101000a900473ffffffffffffffffffffffffffffffffffffffff1673ffffffffffffffffffffffffffffffffffffffff163373ffffffffffffffffffffffffffffffffffffffff161415610c4257600a600d80549050141580610b9c5750600a600b8054905014155b15610ba657610c44565b6040518060400160405280600c81526020017f6a6520746f20687261632032000000000000000000000000000000000000000081525060069080519060200190610bf19291906120bc565b503373ffffffffffffffffffffffffffffffffffffffff166108fc479081150290604051600060405180830381858888f19350505050158015610c38573d6000803e3d6000fd5b50610c41611e1d565b5b5b5b565b6002339080600181540180825580915050600190039060005260206000200160009091909190916101000a81548173ffffffffffffffffffffffffffffffffffffffff021916908373ffffffffffffffffffffffffffffffffffffffff1602179055503373ffffffffffffffffffffffffffffffffffffffff166002600081548110610cce57fe5b9060005260206000200160009054906101000a900473ffffffffffffffffffffffffffffffffffffffff1673ffffffffffffffffffffffffffffffffffffffff161415610d215734600181905550610dee565b600154341015610d7c576040517f08c379a00000000000000000000000000000000000000000000000000000000081526004018080602001828103825260508152602001806124266050913960600191505060405180910390fd5b600154341115610dd2573373ffffffffffffffffffffffffffffffffffffffff166108fc60015434039081150290604051600060405180830381858888f19350505050158015610dd0573d6000803e3d6000fd5b505b6001600460006101000a81548160ff0219169083151502179055505b6040518060400160405280600d81526020017f757a206a652074616d20696e610000000000000000000000000000000000000081525060009080519060200190610e399291906120bc565b50565b606080604067ffffffffffffffff81118015610e5757600080fd5b506040519080825280601f01601f191660200182016040528015610e8a5781602001600182028036833780820191505090505b5090508360208201528260408201528091505092915050565b600080858051906020012090506000849050600080905060008090505b8751821015610fbb5760008160020a8481610ed757fe5b049050600060028281610ee657fe5b069050600060018460020a60018660020a6006800263ffffffff16010381610f0a57fe5b04039050600060026001840181610f1d57fe5b06838503019050848060010195505081811115610f3d5750505050610ec0565b600060028481610f4957fe5b061415610f8357610f6d888d8881518110610f6057fe5b6020026020010151610e3c565b8051906020012097508580600101965050610fb2565b610fa08c8781518110610f9257fe5b602002602001015189610e3c565b80519060200120975085806001019650505b50505050610ec0565b858414945050505050949350505050565b600060011515600460009054906101000a900460ff16151514611057576040517f08c379a000000000000000000000000000000000000000000000000000000000815260040180806020018281038252601f8152602001807f424154544c45534849503a2067616d65206973206e6f742072756e6e696e670081525060200191505060405180910390fd5b61105f611d41565b6110b4576040517f08c379a00000000000000000000000000000000000000000000000000000000081526004018080602001828103825260328152602001806122ea6032913960400191505060405180910390fd5b600061116486868660026000815481106110ca57fe5b9060005260206000200160009054906101000a900473ffffffffffffffffffffffffffffffffffffffff1673ffffffffffffffffffffffffffffffffffffffff168773ffffffffffffffffffffffffffffffffffffffff161461114557600360018154811061113557fe5b906000526020600020015461115f565b600360008154811061115357fe5b90600052602060002001545b610ea3565b15905080156111bd573373ffffffffffffffffffffffffffffffffffffffff166108fc479081150290604051600060405180830381858888f193505050501580156111b3573d6000803e3d6000fd5b506111bc611e1d565b5b80915050949350505050565b600080600090505b835181101561120c57828482815181106111e757fe5b602002602001015114156111ff576001915050611212565b80806001019150506111d1565b50600090505b92915050565b60011515600460009054906101000a900460ff161515146112a1576040517f08c379a000000000000000000000000000000000000000000000000000000000815260040180806020018281038252601f8152602001807f424154544c45534849503a2067616d65206973206e6f742072756e6e696e670081525060200191505060405180910390fd5b6112aa81611f00565b6112ff576040517f08c379a000000000000000000000000000000000000000000000000000000000815260040180806020018281038252603681526020018061238e6036913960400191505060405180910390fd5b600860009054906101000a900473ffffffffffffffffffffffffffffffffffffffff1673ffffffffffffffffffffffffffffffffffffffff163373ffffffffffffffffffffffffffffffffffffffff1614156113a6576040517f08c379a00000000000000000000000000000000000000000000000000000000081526004018080602001828103825260368152602001806123c46036913960400191505060405180910390fd5b4260078190555080600860006101000a81548173ffffffffffffffffffffffffffffffffffffffff021916908373ffffffffffffffffffffffffffffffffffffffff1602179055507f6999852f0fd8d46aef010324e5e0c924343854d627d6a5231ed0b799d36db56760075433604051808381526020018273ffffffffffffffffffffffffffffffffffffffff1673ffffffffffffffffffffffffffffffffffffffff1681526020019250505060405180910390a150565b3373ffffffffffffffffffffffffffffffffffffffff16600860009054906101000a900473ffffffffffffffffffffffffffffffffffffffff1673ffffffffffffffffffffffffffffffffffffffff16141561153e576000600754141580156114cc5750603c600754014211155b1561153d576000600781905550600960009054906101000a900473ffffffffffffffffffffffffffffffffffffffff16600860006101000a81548173ffffffffffffffffffffffffffffffffffffffff021916908373ffffffffffffffffffffffffffffffffffffffff1602179055505b5b50565b60011515600460009054906101000a900460ff161515146115ca576040517f08c379a000000000000000000000000000000000000000000000000000000000815260040180806020018281038252601f8152602001807f424154544c45534849503a2067616d65206973206e6f742072756e6e696e670081525060200191505060405180910390fd5b6115d2611d41565b611627576040517f08c379a000000000000000000000000000000000000000000000000000000000815260040180806020018281038252603981526020018061231c6039913960400191505060405180910390fd5b600381908060018154018082558091505060019003906000526020600020016000909190919091505550565b600080611704868686600260008154811061166a57fe5b9060005260206000200160009054906101000a900473ffffffffffffffffffffffffffffffffffffffff1673ffffffffffffffffffffffffffffffffffffffff168773ffffffffffffffffffffffffffffffffffffffff16146116e55760036001815481106116d557fe5b90600052602060002001546116ff565b60036000815481106116f357fe5b90600052602060002001545b610ea3565b9050600260008154811061171457fe5b9060005260206000200160009054906101000a900473ffffffffffffffffffffffffffffffffffffffff1673ffffffffffffffffffffffffffffffffffffffff163373ffffffffffffffffffffffffffffffffffffffff1614156118d7578273ffffffffffffffffffffffffffffffffffffffff163373ffffffffffffffffffffffffffffffffffffffff16141561183e57611800600c8054806020026020016040519081016040528092919081815260200182805480156117f557602002820191906000526020600020905b8154815260200190600101908083116117e1575b5050505050856111c9565b15801561180a5750805b1561183957600c8490806001815401808255809150506001900390600052602060002001600090919091909150555b6118d2565b611898600a80548060200260200160405190810160405280929190818152602001828054801561188d57602002820191906000526020600020905b815481526020019060010190808311611879575b5050505050856111c9565b1580156118a25750805b156118d157600a8490806001815401808255809150506001900390600052602060002001600090919091909150555b5b611a38565b8273ffffffffffffffffffffffffffffffffffffffff163373ffffffffffffffffffffffffffffffffffffffff1614156119a357611965600d80548060200260200160405190810160405280929190818152602001828054801561195a57602002820191906000526020600020905b815481526020019060010190808311611946575b5050505050856111c9565b15801561196f5750805b1561199e57600d8490806001815401808255809150506001900390600052602060002001600090919091909150555b611a37565b6119fd600b8054806020026020016040519081016040528092919081815260200182805480156119f257602002820191906000526020600020905b8154815260200190600101908083116119de575b5050505050856111c9565b158015611a075750805b15611a3657600b8490806001815401808255809150506001900390600052602060002001600090919091909150555b5b5b80915050949350505050565b60011515600460009054906101000a900460ff16151514611acd576040517f08c379a000000000000000000000000000000000000000000000000000000000815260040180806020018281038252601f8152602001807f424154544c45534849503a2067616d65206973206e6f742072756e6e696e670081525060200191505060405180910390fd5b611ad681611f00565b611b2b576040517f08c379a00000000000000000000000000000000000000000000000000000000081526004018080602001828103825260398152602001806123556039913960400191505060405180910390fd5b8073ffffffffffffffffffffffffffffffffffffffff16600860009054906101000a900473ffffffffffffffffffffffffffffffffffffffff1673ffffffffffffffffffffffffffffffffffffffff161415611bee57600060075414158015611b985750603c6007540142115b15611bed573373ffffffffffffffffffffffffffffffffffffffff166108fc479081150290604051600060405180830381858888f19350505050158015611be3573d6000803e3d6000fd5b50611bec611e1d565b5b5b50565b6000600460009054906101000a900460ff1615905090565b60011515600460009054906101000a900460ff16151514611c92576040517f08c379a000000000000000000000000000000000000000000000000000000000815260040180806020018281038252601f8152602001807f424154544c45534849503a2067616d65206973206e6f742072756e6e696e670081525060200191505060405180910390fd5b611c9a611d41565b611cef576040517f08c379a000000000000000000000000000000000000000000000000000000000815260040180806020018281038252602a8152602001806122c0602a913960400191505060405180910390fd5b8073ffffffffffffffffffffffffffffffffffffffff166108fc479081150290604051600060405180830381858888f19350505050158015611d35573d6000803e3d6000fd5b50611d3e611e1d565b50565b60006002600081548110611d5157fe5b9060005260206000200160009054906101000a900473ffffffffffffffffffffffffffffffffffffffff1673ffffffffffffffffffffffffffffffffffffffff163373ffffffffffffffffffffffffffffffffffffffff161480611e1857506002600181548110611dbe57fe5b9060005260206000200160009054906101000a900473ffffffffffffffffffffffffffffffffffffffff1673ffffffffffffffffffffffffffffffffffffffff163373ffffffffffffffffffffffffffffffffffffffff16145b905090565b6040518060400160405280600781526020017f706f766f646e610000000000000000000000000000000000000000000000000081525060009080519060200190611e689291906120bc565b506000600181905550600e6002908054611e8392919061213c565b50600f6003908054611e9692919061218e565b506000600460006101000a81548160ff0219169083151502179055506005600a908054611ec49291906121e0565b506005600b908054611ed79291906121e0565b506005600c908054611eea9291906121e0565b506005600d908054611efd9291906121e0565b50565b60006002600081548110611f1057fe5b9060005260206000200160009054906101000a900473ffffffffffffffffffffffffffffffffffffffff1673ffffffffffffffffffffffffffffffffffffffff163373ffffffffffffffffffffffffffffffffffffffff16148015611fd857506002600181548110611f7e57fe5b9060005260206000200160009054906101000a900473ffffffffffffffffffffffffffffffffffffffff1673ffffffffffffffffffffffffffffffffffffffff168273ffffffffffffffffffffffffffffffffffffffff16145b806120b557506002600181548110611fec57fe5b9060005260206000200160009054906101000a900473ffffffffffffffffffffffffffffffffffffffff1673ffffffffffffffffffffffffffffffffffffffff163373ffffffffffffffffffffffffffffffffffffffff161480156120b45750600260008154811061205a57fe5b9060005260206000200160009054906101000a900473ffffffffffffffffffffffffffffffffffffffff1673ffffffffffffffffffffffffffffffffffffffff168273ffffffffffffffffffffffffffffffffffffffff16145b5b9050919050565b828054600181600116156101000203166002900490600052602060002090601f016020900481019282601f106120fd57805160ff191683800117855561212b565b8280016001018555821561212b579182015b8281111561212a57825182559160200191906001019061210f565b5b5090506121389190612232565b5090565b82805482825590600052602060002090810192821561217d5760005260206000209182015b8281111561217c578254825591600101919060010190612161565b5b50905061218a9190612257565b5090565b8280548282559060005260206000209081019282156121cf5760005260206000209182015b828111156121ce5782548255916001019190600101906121b3565b5b5090506121dc919061229a565b5090565b8280548282559060005260206000209081019282156122215760005260206000209182015b82811115612220578254825591600101919060010190612205565b5b50905061222e9190612232565b5090565b61225491905b80821115612250576000816000905550600101612238565b5090565b90565b61229791905b8082111561229357600081816101000a81549073ffffffffffffffffffffffffffffffffffffffff02191690555060010161225d565b5090565b90565b6122bc91905b808211156122b85760008160009055506001016122a0565b5090565b9056fe424154544c45534849503a206f6e6c7920706c617965722031206f7220322063616e20666f7266656974424154544c45534849503a206f6e6c7920706c617965722031206f7220322063616e20616363757365206368656174696e67424154544c45534849503a206f6e6c7920706c617965722031206f7220322063616e2073746f726520626f61726420636f6d6d69746d656e74424154544c45534849503a206f6e6c7920706c617965722031206f7220322063616e20636c61696d2074696d656f75742077696e6e696e6773424154544c45534849503a206f6e6c7920706c617965722031206f7220322063616e20636c61696d206f70706f6e656e74206c656674506c61796572206d75737420636c61696d2074696d656f7574206265666f72652063616c6c696e6720746869732066756e6374696f6e424154544c45534849503a206f6e6c7920706c617965722031206f7220322063616e20636c61696d2077696e424154544c45534849503a2076616c75652073656e742068617320746f2062652067726561746572206f7220657175616c207468656e20626964207375626d697474656420627920706c617965722031a264697066735822122049009a7cef502e4c826ca004709cad9fe879904d0053dd267566a35b38d0ceaa64736f6c63430006060033",
  "immutableReferences": {},
  "source": "// SPDX-License-Identifier: MIT\npragma solidity >=0.4.22 <0.7.0;\n\nimport \"./ECDSA.sol\";\n\n\ncontract Battleship {\n    using ECDSA for bytes32;\n    uint32 constant BOARD_LEN = 6;\n\n    string skusam = \"povodna\";\n\n\n    uint256 bet;\n    address[] players;\n    bytes32[] initial_states; // on position 0 is fisrt player on position \n    bool is_game_running = true;\n\n\n    uint[] array_to_reset;\n\n    string winner;\n\n\n    uint start_of_timeout = 0;\n    address player_accused_for_timeout;\n    address player_accused_for_timeout_reset;\n\n    // you cannot hit the same place twice so we need to store the hited places indexes \n    uint[] first_player_hitted_places_indexes;\n    uint[] second_player_hitted_places_indexes;\n\n    // we cannot have the same index of our ship twice so we need to store the indexes\n    uint[] first_player_own_ships_indexes;\n    uint[] second_player_own_ships_indexes;\n\n\n    event timeout(uint start_of_timeout, address reporter);\n\n    function callFromOnePlayerWithOpponent(address payable opponent) internal view returns(bool){\n        return (msg.sender == players[0] && opponent == players[1]) || (msg.sender == players[1] && opponent == players[0]);\n    }\n\n     function callFromOnePlayer() internal view returns(bool){\n        return (msg.sender == players[0] || msg.sender == players[1]);\n    }\n    \n\n    // Declare state variables here.\n    // Consider keeping state for:\n    // - player addresses\n    // - whether the game is over\n    // - board commitments\n    // - whether a player has proven 10 winning moves\n    // - whether a player has proven their own board had 10 ships\n\n    // Declare events here.\n    // Consider triggering an event upon accusing another player of having left.\n\n    // Store the bids of each player\n    // Start the game when both bids are received\n    // The first player to call the function determines the bid amount.\n    // Refund excess bids to the second player if they bid too much.\n    function store_bid() public payable{\n\n    players.push(msg.sender);\n    //control bet if player one set too high\n    if(players[0] == msg.sender){\n        bet = msg.value;\n    }\n    else{\n        require(msg.value >= bet, \"BATTLESHIP: value sent has to be greater or equal then bid submitted by player 1\");\n        if(msg.value > bet){\n           msg.sender.transfer(msg.value - bet);\n        }\n        is_game_running = true;\n    }\n    skusam = \"uz je tam ina\";\n    }\n\n    address[] players2;\n    bytes32[] initial_states2;\n\n    // Clear state - make sure to set that the game is not in session\n    function clear_state() internal {\n        skusam = \"povodna\";\n        bet = 0;\n        players = players2;\n        initial_states = initial_states2;\n        is_game_running = false;\n        \n        first_player_hitted_places_indexes = array_to_reset;\n        second_player_hitted_places_indexes = array_to_reset;\n\n    // we cannot have the same index of our ship twice so we need to store the indexes\n        first_player_own_ships_indexes = array_to_reset;\n        second_player_own_ships_indexes = array_to_reset;\n\n    }\n\n    // Store the initial board commitments of each player\n    // Note that merkle_root is the hash of the topmost value of the merkle tree\n    function store_board_commitment(bytes32 merkle_root) public {\n        require(is_game_running == true, \"BATTLESHIP: game is not running\");\n        require(callFromOnePlayer(), \"BATTLESHIP: only player 1 or 2 can store board commitment\");\n        initial_states.push(merkle_root);\n    }\n\n    // Verify the placement of one ship on a board\n    // opening_nonce - corresponds to web3.utils.fromAscii(JSON.stringify(opening) + JSON.stringify(nonce)) in JS\n    // proof - a list of sha256 hashes you can get from get_proof_for_board_guess\n    // guess_leaf_index - the index of the guess as a leaf in the merkle tree\n    // owner - the address of the owner of the board on which this ship lives\n    function check_one_ship(bytes memory opening_nonce, bytes32[] memory proof,\n        uint256 guess_leaf_index, address owner) public returns (bool result) {\n        //check player one\n\n         bool is_valid = verify_opening(opening_nonce, proof, guess_leaf_index, owner == players[0] ? initial_states[0] : initial_states[1]);\n\n        if(msg.sender == players[0]){\n            //sending his own ships\n            if(msg.sender == owner){\n                if( !isInArray(first_player_own_ships_indexes, guess_leaf_index) && is_valid){\n                   first_player_own_ships_indexes.push(guess_leaf_index);\n                }\n            }\n            else{\n                if( !isInArray(first_player_hitted_places_indexes, guess_leaf_index) && is_valid){\n                   first_player_hitted_places_indexes.push(guess_leaf_index);\n                }\n            }\n        }\n        // check for player two\n        else{\n             //sending his own ships\n            if(msg.sender == owner){\n                if( !isInArray(second_player_own_ships_indexes, guess_leaf_index) && is_valid){\n                   second_player_own_ships_indexes.push(guess_leaf_index);\n                }\n            }\n            else{\n                if( !isInArray(second_player_hitted_places_indexes, guess_leaf_index) && is_valid){\n                   second_player_hitted_places_indexes.push(guess_leaf_index);\n                }\n            }\n        }    \n        \n        return is_valid;\n    }\n\n    // Claim you won the game\n    // If you have checked 10 winning moves (hits) AND you have checked\n    // 10 of your own ship placements with the contract, then this function\n    // should transfer winning funds to you and end the game.\n    function claim_win() public {\n        require(is_game_running == true, \"BATTLESHIP: game is not running\");\n        require(callFromOnePlayer(), \"BATTLESHIP: only player 1 or 2 can claim win\");\n        if(msg.sender == players[0]){\n            //check if players 1 has 10 proven ships and 10 proven hits, then send him bet*2\n            if(first_player_own_ships_indexes.length != 10 || first_player_hitted_places_indexes.length != 10) {return;}\n\n            winner = \"je to hrac 1\";    \n            msg.sender.transfer(address(this).balance); \n              clear_state(); \n        }\n        else if(msg.sender == players[1]){\n            //check if players 1 has 10 proven ships and 10 proven hits, then send him bet*2\n\n            if(second_player_own_ships_indexes.length != 10 || second_player_hitted_places_indexes.length != 10) {return;}\n\n\n            winner = \"je to hrac 2\";\n            msg.sender.transfer(address(this).balance);\n             clear_state();\n        }\n    }\n\n\n    // Forfeit the game\n    // Regardless of cheating, board state, or any other conditions, this function\n    // results in all funds being sent to the opponent and the game being over.\n    function forfeit(address payable opponent) public {\n        require(is_game_running == true, \"BATTLESHIP: game is not running\");\n        require(callFromOnePlayer(), \"BATTLESHIP: only player 1 or 2 can forfeit\");\n        opponent.transfer(address(this).balance);\n        clear_state();\n    }\n\n    // Claim the opponent cheated - if true, you win.\n    // opening_nonce - corresponds to web3.utils.fromAscii(JSON.stringify(opening) + JSON.stringify(nonce)) in JS\n    // proof - a list of sha256 hashes you can get from get_proof_for_board_guess (this is what the sender believes to be a lie)\n    // guess_leaf_index - the index of the guess as a leaf in the merkle tree\n    // owner - the address of the owner of the board on which this ship lives\n    function accuse_cheating(bytes memory opening_nonce, bytes32[] memory proof,\n        uint256 guess_leaf_index, address owner) public returns (bool result) {\n        require(is_game_running == true, \"BATTLESHIP: game is not running\");\n        require(callFromOnePlayer(), \"BATTLESHIP: only player 1 or 2 can accuse cheating\");\n        // verify return if his move was clean, if true then he is not cheteaded that why we need to negate it\n        bool cheated = !verify_opening(opening_nonce, proof, guess_leaf_index, owner == players[0] ? initial_states[0] : initial_states[1]);\n        //send sender bet becasause other player cheated\n        if(cheated) {\n            msg.sender.transfer(address(this).balance);\n            clear_state();\n        }\n        return cheated;\n    }\n\n    // Claim the opponent of taking too long/leaving\n    // Trigger an event that both players should listen for.\n    function claim_opponent_left(address opponent) public {\n        require(is_game_running == true, \"BATTLESHIP: game is not running\");\n        require(callFromOnePlayerWithOpponent(payable(opponent)), \"BATTLESHIP: only player 1 or 2 can claim opponent left\");\n        require(msg.sender != player_accused_for_timeout, \"Player must claim timeout before calling this function\");\n       start_of_timeout = block.timestamp;\n        player_accused_for_timeout = payable(opponent);\n        emit timeout(start_of_timeout, msg.sender);\n    }\n\n    // Handle a timeout accusation - msg.sender is the accused party.\n    // If less than 1 minute has passed, then set state appropriately to prevent distribution of winnings.\n    // Otherwise, do nothing.\n    function handle_timeout(address payable opponent) public {\n        // if guy who accued other is opponent then i set timeout to 0 because i am in game\n        if(player_accused_for_timeout == msg.sender){\n            if (start_of_timeout != 0 && now <= start_of_timeout + 60) {\n                start_of_timeout = 0;\n                player_accused_for_timeout = player_accused_for_timeout_reset;\n            }\n        }\n    }\n\n    // Claim winnings if opponent took too long/stopped responding after claim_opponent_left\n    // The player MUST claim winnings. The opponent failing to handle the timeout on their end should not\n    // result in the game being over. If the timer has not run out, do nothing.\n    function claim_timeout_winnings(address opponent) public {\n        require(is_game_running == true, \"BATTLESHIP: game is not running\");\n        require(callFromOnePlayerWithOpponent(payable(opponent)), \"BATTLESHIP: only player 1 or 2 can claim timeout winnings\");\n        // opponet cannot trigger winning\n        if(player_accused_for_timeout == opponent){\n        if (start_of_timeout != 0 && now > start_of_timeout + 60) {\n            msg.sender.transfer(address(this).balance);\n            clear_state();\n            }\n        }\n    }\n\n    // Check if game is over\n    // Hint - use a state variable for this, so you can call it from JS.\n    // Note - you cannot use the return values of functions that change state in JS.\n    function is_game_over() public returns (bool) {\n        return !is_game_running;\n    }\n\n    /**** Helper Functions below this point. Do not modify. ****/\n    /***********************************************************/\n\n    function merge_bytes32(bytes32 a, bytes32 b) pure public returns (bytes memory) {\n        bytes memory result = new bytes(64);\n        assembly {\n            mstore(add(result, 32), a)\n            mstore(add(result, 64), b)\n        }\n        return result;\n    }\n\n    // Verify the proof of a single spot on a single board\n    // \\args:\n    //      opening_nonce - corresponds to web3.utils.fromAscii(JSON.stringify(opening) + JSON.stringify(nonce)));\n    //      proof - list of sha256 hashes that correspond to output from get_proof_for_board_guess()\n    //      guess - [i, j] - guess that opening corresponds to\n    //      commit - merkle root of the board\n    function verify_opening(bytes memory opening_nonce, bytes32[] memory proof, uint guess_leaf_index, bytes32 commit) public view returns (bool result) {\n        bytes32 curr_commit = keccak256(opening_nonce); // see if this changes hash\n        uint index_in_leaves = guess_leaf_index;\n\n        uint curr_proof_index = 0;\n        uint i = 0;\n\n        while (curr_proof_index < proof.length) {\n            // index of which group the guess is in for the current level of Merkle tree\n            // (equivalent to index of parent in next level of Merkle tree)\n            uint group_in_level_of_merkle = index_in_leaves / (2**i);\n            // index in Merkle group in (0, 1)\n            uint index_in_group = group_in_level_of_merkle % 2;\n            // max node index for currrent Merkle level\n            uint max_node_index = ((BOARD_LEN * BOARD_LEN + (2**i) - 1) / (2**i)) - 1;\n            // index of sibling of curr_commit\n            uint sibling = group_in_level_of_merkle - index_in_group + (index_in_group + 1) % 2;\n            i++;\n            if (sibling > max_node_index) continue;\n            if (index_in_group % 2 == 0) {\n                curr_commit = keccak256(merge_bytes32(curr_commit, proof[curr_proof_index]));\n                curr_proof_index++;\n            } else {\n                curr_commit = keccak256(merge_bytes32(proof[curr_proof_index], curr_commit));\n                curr_proof_index++;\n            }\n        }\n        return (curr_commit == commit);    }\n\n        function isInArray(uint256[] memory array, uint256 value) public view returns (bool) {\n            for (uint i = 0; i < array.length; i++) {\n                if (array[i] == value) {\n                    return true;\n                }\n            }\n            return false;\n        }\n\n\n}\n",
  "sourcePath": "/home/roman/Skola/6semester/DMBLOCK/Zadanie2/Zadanie 2/kody/contracts/Battleship.sol",
  "compiler": {
    "name": "solc",
    "version": "0.6.6+commit.6c089d02.Emscripten.clang"
  },
  "schemaVersion": "3.4.5",
  "updatedAt": "2022-04-13T18:10:19.416Z",
  "networkType": "ethereum",
  "devdoc": {
    "methods": {}
  },
  "userdoc": {
    "methods": {
      "merge_bytes32(bytes32,bytes32)": {
        "notice": "********************************************************"
      }
    }
  }
}